{
  "_format": "hh-sol-artifact-1",
  "contractName": "DealRouter",
  "sourceName": "contracts/DealRouter.sol",
  "abi": [
    {
      "inputs": [],
      "stateMutability": "nonpayable",
      "type": "constructor"
    },
    {
      "anonymous": false,
      "inputs": [
        {
          "indexed": false,
          "internalType": "address",
          "name": "application",
          "type": "address"
        },
        {
          "indexed": false,
          "internalType": "address",
          "name": "payer",
          "type": "address"
        },
        {
          "indexed": false,
          "internalType": "contract IERC20",
          "name": "feeToken",
          "type": "address"
        },
        {
          "indexed": false,
          "internalType": "uint256",
          "name": "amount",
          "type": "uint256"
        }
      ],
      "name": "FeeCollected",
      "type": "event"
    },
    {
      "anonymous": false,
      "inputs": [
        {
          "indexed": false,
          "internalType": "address",
          "name": "market",
          "type": "address"
        },
        {
          "indexed": false,
          "internalType": "uint256",
          "name": "feeRate",
          "type": "uint256"
        }
      ],
      "name": "FixedRateFeeUpdated",
      "type": "event"
    },
    {
      "anonymous": false,
      "inputs": [
        {
          "indexed": true,
          "internalType": "address",
          "name": "previousOwner",
          "type": "address"
        },
        {
          "indexed": true,
          "internalType": "address",
          "name": "newOwner",
          "type": "address"
        }
      ],
      "name": "OwnershipTransferred",
      "type": "event"
    },
    {
      "anonymous": false,
      "inputs": [
        {
          "indexed": false,
          "internalType": "contract IERC20",
          "name": "feeToken",
          "type": "address"
        },
        {
          "indexed": false,
          "internalType": "bool",
          "name": "value",
          "type": "bool"
        }
      ],
      "name": "SetFeeToken",
      "type": "event"
    },
    {
      "anonymous": false,
      "inputs": [
        {
          "indexed": false,
          "internalType": "contract IERC20",
          "name": "feeToken",
          "type": "address"
        },
        {
          "indexed": false,
          "internalType": "address",
          "name": "feeTo",
          "type": "address"
        },
        {
          "indexed": false,
          "internalType": "uint256",
          "name": "amount",
          "type": "uint256"
        }
      ],
      "name": "WithdrawFee",
      "type": "event"
    },
    {
      "inputs": [
        {
          "internalType": "contract IERC20",
          "name": "feeToken",
          "type": "address"
        },
        {
          "internalType": "address payable",
          "name": "payer",
          "type": "address"
        },
        {
          "internalType": "address payable",
          "name": "recipient",
          "type": "address"
        },
        {
          "internalType": "uint256",
          "name": "volume",
          "type": "uint256"
        }
      ],
      "name": "dealWithFixedRateFee",
      "outputs": [
        {
          "internalType": "uint256",
          "name": "feeCollected",
          "type": "uint256"
        },
        {
          "internalType": "uint256",
          "name": "recipientReceived",
          "type": "uint256"
        }
      ],
      "stateMutability": "payable",
      "type": "function"
    },
    {
      "inputs": [
        {
          "internalType": "contract IERC20",
          "name": "",
          "type": "address"
        }
      ],
      "name": "feeTokenWhitelist",
      "outputs": [
        {
          "internalType": "bool",
          "name": "",
          "type": "bool"
        }
      ],
      "stateMutability": "view",
      "type": "function"
    },
    {
      "inputs": [
        {
          "internalType": "address",
          "name": "",
          "type": "address"
        }
      ],
      "name": "fixedRateFee",
      "outputs": [
        {
          "internalType": "uint256",
          "name": "rate",
          "type": "uint256"
        },
        {
          "internalType": "bool",
          "name": "initialized",
          "type": "bool"
        }
      ],
      "stateMutability": "view",
      "type": "function"
    },
    {
      "inputs": [],
      "name": "owner",
      "outputs": [
        {
          "internalType": "address",
          "name": "",
          "type": "address"
        }
      ],
      "stateMutability": "view",
      "type": "function"
    },
    {
      "inputs": [],
      "name": "renounceOwnership",
      "outputs": [],
      "stateMutability": "nonpayable",
      "type": "function"
    },
    {
      "inputs": [
        {
          "internalType": "contract IERC20",
          "name": "feeToken",
          "type": "address"
        },
        {
          "internalType": "bool",
          "name": "value",
          "type": "bool"
        }
      ],
      "name": "setFeeToken",
      "outputs": [],
      "stateMutability": "nonpayable",
      "type": "function"
    },
    {
      "inputs": [
        {
          "internalType": "address",
          "name": "app",
          "type": "address"
        },
        {
          "internalType": "uint256",
          "name": "feeRate",
          "type": "uint256"
        }
      ],
      "name": "setFixedRateFee",
      "outputs": [],
      "stateMutability": "nonpayable",
      "type": "function"
    },
    {
      "inputs": [
        {
          "internalType": "address",
          "name": "newOwner",
          "type": "address"
        }
      ],
      "name": "transferOwnership",
      "outputs": [],
      "stateMutability": "nonpayable",
      "type": "function"
    },
    {
      "inputs": [
        {
          "internalType": "contract IERC20",
          "name": "feeToken",
          "type": "address"
        },
        {
          "internalType": "address payable",
          "name": "feeTo",
          "type": "address"
        }
      ],
      "name": "withdrawFee",
      "outputs": [],
      "stateMutability": "nonpayable",
      "type": "function"
    }
  ],
  "bytecode": "0x608060405234801561001057600080fd5b50600080546001600160a01b031916339081178255604051909182917f8be0079c531659141344cd1fd0a4f28419497f9722a3daafe3b4186f6b6457e0908290a3506000805260026020527fac33ff75c19e70fe83507db0d683fd3465c996598dc972688b7ace676c89077b805460ff19166001179055611322806100966000396000f3fe6080604052600436106100965760003560e01c8063b378e0de11610069578063c879c6d81161004e578063c879c6d8146101c0578063f2fde38b146101e0578063f65c2d531461020057600080fd5b8063b378e0de14610178578063b73074161461019857600080fd5b80630652d7921461009b5780634ae9bd63146100ec578063715018a61461012c5780638da5cb5b14610143575b600080fd5b3480156100a757600080fd5b506100d26100b6366004611034565b6001602081905260009182526040909120805491015460ff1682565b604080519283529015156020830152015b60405180910390f35b3480156100f857600080fd5b5061011c610107366004611034565b60026020526000908152604090205460ff1681565b60405190151581526020016100e3565b34801561013857600080fd5b50610141610220565b005b34801561014f57600080fd5b5060005460405173ffffffffffffffffffffffffffffffffffffffff90911681526020016100e3565b34801561018457600080fd5b50610141610193366004611050565b610315565b6101ab6101a63660046110cf565b6104a5565b604080519283526020830191909152016100e3565b3480156101cc57600080fd5b506101416101db366004611097565b610738565b3480156101ec57600080fd5b506101416101fb366004611034565b610946565b34801561020c57600080fd5b5061014161021b36600461111f565b610af7565b60005473ffffffffffffffffffffffffffffffffffffffff1633146102a6576040517f08c379a000000000000000000000000000000000000000000000000000000000815260206004820181905260248201527f4f776e61626c653a2063616c6c6572206973206e6f7420746865206f776e657260448201526064015b60405180910390fd5b6000805460405173ffffffffffffffffffffffffffffffffffffffff909116907f8be0079c531659141344cd1fd0a4f28419497f9722a3daafe3b4186f6b6457e0908390a3600080547fffffffffffffffffffffffff0000000000000000000000000000000000000000169055565b60005473ffffffffffffffffffffffffffffffffffffffff163314610396576040517f08c379a000000000000000000000000000000000000000000000000000000000815260206004820181905260248201527f4f776e61626c653a2063616c6c6572206973206e6f7420746865206f776e6572604482015260640161029d565b73ffffffffffffffffffffffffffffffffffffffff8216610413576040517f08c379a000000000000000000000000000000000000000000000000000000000815260206004820152601c60248201527f696c6c6567616c206170706c69636174696f6e20636f6e747261637400000000604482015260640161029d565b73ffffffffffffffffffffffffffffffffffffffff8216600081815260016020818152604092839020858155820180547fffffffffffffffffffffffffffffffffffffffffffffffffffffffffffffff0016909217909155815192835282018390527f2163cb078a3f69c277dfb5278ac0076b7ff24511b73f7e11dc589193ed842ec991015b60405180910390a15050565b33600090815260016020819052604082209081015482919060ff16610526576040517f08c379a000000000000000000000000000000000000000000000000000000000815260206004820152601d60248201527f6d73672e73656e64657220686173206e6f74207065726d697373696f6e000000604482015260640161029d565b8054670de0b6b3a76400009061053c908661120a565b61054691906111d1565b92506105528385611247565b915073ffffffffffffffffffffffffffffffffffffffff87166106815734848110156105da576040517f08c379a000000000000000000000000000000000000000000000000000000000815260206004820152600a60248201527f6e6f7420656e6f75676800000000000000000000000000000000000000000000604482015260640161029d565b848111156106305773ffffffffffffffffffffffffffffffffffffffff87166108fc6106068784611247565b6040518115909202916000818181858888f1935050505015801561062e573d6000803e3d6000fd5b505b821561067b5760405173ffffffffffffffffffffffffffffffffffffffff87169084156108fc029085906000818181858888f19350505050158015610679573d6000803e3d6000fd5b505b506106d1565b81156106a9576106a973ffffffffffffffffffffffffffffffffffffffff8816878785610bff565b82156106d1576106d173ffffffffffffffffffffffffffffffffffffffff8816873086610bff565b6040805133815273ffffffffffffffffffffffffffffffffffffffff88811660208301528916818301526060810185905290517f3e7be0af9d546b20a6a2e91e4151659dfcad117daa1df79e78d17c5ad2f45b769181900360800190a15094509492505050565b60005473ffffffffffffffffffffffffffffffffffffffff1633146107b9576040517f08c379a000000000000000000000000000000000000000000000000000000000815260206004820181905260248201527f4f776e61626c653a2063616c6c6572206973206e6f7420746865206f776e6572604482015260640161029d565b60003073ffffffffffffffffffffffffffffffffffffffff84166108265760405173ffffffffffffffffffffffffffffffffffffffff80831631935084169083156108fc029084906000818181858888f19350505050158015610820573d6000803e3d6000fd5b506108e8565b6040517f70a0823100000000000000000000000000000000000000000000000000000000815273ffffffffffffffffffffffffffffffffffffffff82811660048301528516906370a082319060240160206040518083038186803b15801561088d57600080fd5b505afa1580156108a1573d6000803e3d6000fd5b505050506040513d601f19601f820116820180604052508101906108c5919061114c565b91506108e873ffffffffffffffffffffffffffffffffffffffff85168484610ce1565b6040805173ffffffffffffffffffffffffffffffffffffffff8087168252851660208201529081018390527ff15a0a3784dea9b4fe33bc98e2450745e262d310237b2868ea8ef56967ff3ecb9060600160405180910390a150505050565b60005473ffffffffffffffffffffffffffffffffffffffff1633146109c7576040517f08c379a000000000000000000000000000000000000000000000000000000000815260206004820181905260248201527f4f776e61626c653a2063616c6c6572206973206e6f7420746865206f776e6572604482015260640161029d565b73ffffffffffffffffffffffffffffffffffffffff8116610a6a576040517f08c379a000000000000000000000000000000000000000000000000000000000815260206004820152602660248201527f4f776e61626c653a206e6577206f776e657220697320746865207a65726f206160448201527f6464726573730000000000000000000000000000000000000000000000000000606482015260840161029d565b6000805460405173ffffffffffffffffffffffffffffffffffffffff808516939216917f8be0079c531659141344cd1fd0a4f28419497f9722a3daafe3b4186f6b6457e091a3600080547fffffffffffffffffffffffff00000000000000000000000000000000000000001673ffffffffffffffffffffffffffffffffffffffff92909216919091179055565b60005473ffffffffffffffffffffffffffffffffffffffff163314610b78576040517f08c379a000000000000000000000000000000000000000000000000000000000815260206004820181905260248201527f4f776e61626c653a2063616c6c6572206973206e6f7420746865206f776e6572604482015260640161029d565b73ffffffffffffffffffffffffffffffffffffffff821660008181526002602090815260409182902080547fffffffffffffffffffffffffffffffffffffffffffffffffffffffffffffff00168515159081179091558251938452908301527fcdaaca9eba749e91abd338e3b4c0eeb514d7bc059e7ba5dd8c0dea5be8d2c9049101610499565b60405173ffffffffffffffffffffffffffffffffffffffff80851660248301528316604482015260648101829052610cdb9085907f23b872dd00000000000000000000000000000000000000000000000000000000906084015b604080517fffffffffffffffffffffffffffffffffffffffffffffffffffffffffffffffe08184030181529190526020810180517bffffffffffffffffffffffffffffffffffffffffffffffffffffffff167fffffffff0000000000000000000000000000000000000000000000000000000090931692909217909152610d3c565b50505050565b60405173ffffffffffffffffffffffffffffffffffffffff8316602482015260448101829052610d379084907fa9059cbb0000000000000000000000000000000000000000000000000000000090606401610c59565b505050565b6000610d9e826040518060400160405280602081526020017f5361666545524332303a206c6f772d6c6576656c2063616c6c206661696c65648152508573ffffffffffffffffffffffffffffffffffffffff16610e489092919063ffffffff16565b805190915015610d375780806020019051810190610dbc919061107b565b610d37576040517f08c379a000000000000000000000000000000000000000000000000000000000815260206004820152602a60248201527f5361666545524332303a204552433230206f7065726174696f6e20646964206e60448201527f6f74207375636365656400000000000000000000000000000000000000000000606482015260840161029d565b6060610e578484600085610e61565b90505b9392505050565b606082471015610ef3576040517f08c379a000000000000000000000000000000000000000000000000000000000815260206004820152602660248201527f416464726573733a20696e73756666696369656e742062616c616e636520666f60448201527f722063616c6c0000000000000000000000000000000000000000000000000000606482015260840161029d565b843b610f5b576040517f08c379a000000000000000000000000000000000000000000000000000000000815260206004820152601d60248201527f416464726573733a2063616c6c20746f206e6f6e2d636f6e7472616374000000604482015260640161029d565b6000808673ffffffffffffffffffffffffffffffffffffffff168587604051610f849190611164565b60006040518083038185875af1925050503d8060008114610fc1576040519150601f19603f3d011682016040523d82523d6000602084013e610fc6565b606091505b5091509150610fd6828286610fe1565b979650505050505050565b60608315610ff0575081610e5a565b8251156110005782518084602001fd5b816040517f08c379a000000000000000000000000000000000000000000000000000000000815260040161029d9190611180565b600060208284031215611045578081fd5b8135610e5a816112b9565b60008060408385031215611062578081fd5b823561106d816112b9565b946020939093013593505050565b60006020828403121561108c578081fd5b8151610e5a816112de565b600080604083850312156110a9578182fd5b82356110b4816112b9565b915060208301356110c4816112b9565b809150509250929050565b600080600080608085870312156110e4578182fd5b84356110ef816112b9565b935060208501356110ff816112b9565b9250604085013561110f816112b9565b9396929550929360600135925050565b60008060408385031215611131578182fd5b823561113c816112b9565b915060208301356110c4816112de565b60006020828403121561115d578081fd5b5051919050565b6000825161117681846020870161125e565b9190910192915050565b602081526000825180602084015261119f81604085016020870161125e565b601f017fffffffffffffffffffffffffffffffffffffffffffffffffffffffffffffffe0169190910160400192915050565b600082611205577f4e487b710000000000000000000000000000000000000000000000000000000081526012600452602481fd5b500490565b6000817fffffffffffffffffffffffffffffffffffffffffffffffffffffffffffffffff04831182151516156112425761124261128a565b500290565b6000828210156112595761125961128a565b500390565b60005b83811015611279578181015183820152602001611261565b83811115610cdb5750506000910152565b7f4e487b7100000000000000000000000000000000000000000000000000000000600052601160045260246000fd5b73ffffffffffffffffffffffffffffffffffffffff811681146112db57600080fd5b50565b80151581146112db57600080fdfea2646970667358221220e1b9509bd4afa3283d7855a93825756ca05334d3dd97e48c3a1829087caa0f9764736f6c63430008040033",
  "linkReferences": {},
  "deployedLinkReferences": {}
}