{
  "_format": "hh-sol-artifact-1",
  "contractName": "Market",
  "sourceName": "contracts/marketplace/Market.sol",
  "abi": [
    {
      "inputs": [],
      "stateMutability": "nonpayable",
      "type": "constructor"
    },
    {
      "anonymous": false,
      "inputs": [
        {
          "indexed": false,
          "internalType": "uint256",
          "name": "orderId",
          "type": "uint256"
        },
        {
          "indexed": false,
          "internalType": "address",
          "name": "nft",
          "type": "address"
        },
        {
          "indexed": false,
          "internalType": "uint256",
          "name": "tokenId",
          "type": "uint256"
        },
        {
          "indexed": false,
          "internalType": "uint256",
          "name": "remains",
          "type": "uint256"
        }
      ],
      "name": "CancelOrder",
      "type": "event"
    },
    {
      "anonymous": false,
      "inputs": [
        {
          "indexed": false,
          "internalType": "uint256",
          "name": "orderId",
          "type": "uint256"
        },
        {
          "indexed": false,
          "internalType": "address",
          "name": "seller",
          "type": "address"
        },
        {
          "indexed": false,
          "internalType": "address",
          "name": "nft",
          "type": "address"
        },
        {
          "indexed": false,
          "internalType": "uint256",
          "name": "tokenId",
          "type": "uint256"
        },
        {
          "indexed": false,
          "internalType": "uint256",
          "name": "amount",
          "type": "uint256"
        }
      ],
      "name": "MakeOrder",
      "type": "event"
    },
    {
      "anonymous": false,
      "inputs": [
        {
          "indexed": true,
          "internalType": "address",
          "name": "previousOwner",
          "type": "address"
        },
        {
          "indexed": true,
          "internalType": "address",
          "name": "newOwner",
          "type": "address"
        }
      ],
      "name": "OwnershipTransferred",
      "type": "event"
    },
    {
      "anonymous": false,
      "inputs": [
        {
          "indexed": false,
          "internalType": "address",
          "name": "nft",
          "type": "address"
        },
        {
          "indexed": false,
          "internalType": "bool",
          "name": "supported",
          "type": "bool"
        }
      ],
      "name": "SetSupportedNFT",
      "type": "event"
    },
    {
      "anonymous": false,
      "inputs": [
        {
          "indexed": false,
          "internalType": "uint256",
          "name": "orderId",
          "type": "uint256"
        },
        {
          "indexed": false,
          "internalType": "address",
          "name": "buyer",
          "type": "address"
        },
        {
          "indexed": false,
          "internalType": "address",
          "name": "nft",
          "type": "address"
        },
        {
          "indexed": false,
          "internalType": "uint256",
          "name": "tokenId",
          "type": "uint256"
        },
        {
          "indexed": false,
          "internalType": "uint256",
          "name": "amount",
          "type": "uint256"
        },
        {
          "indexed": false,
          "internalType": "uint256",
          "name": "rpcAmount",
          "type": "uint256"
        }
      ],
      "name": "TakeOrder",
      "type": "event"
    },
    {
      "inputs": [
        {
          "internalType": "uint256",
          "name": "orderId",
          "type": "uint256"
        }
      ],
      "name": "cancelOrder",
      "outputs": [
        {
          "internalType": "bool",
          "name": "",
          "type": "bool"
        }
      ],
      "stateMutability": "nonpayable",
      "type": "function"
    },
    {
      "inputs": [],
      "name": "dealRouter",
      "outputs": [
        {
          "internalType": "contract DealRouterInterface",
          "name": "",
          "type": "address"
        }
      ],
      "stateMutability": "view",
      "type": "function"
    },
    {
      "inputs": [
        {
          "internalType": "uint256",
          "name": "orderId",
          "type": "uint256"
        }
      ],
      "name": "getPrice",
      "outputs": [
        {
          "internalType": "uint256",
          "name": "",
          "type": "uint256"
        }
      ],
      "stateMutability": "view",
      "type": "function"
    },
    {
      "inputs": [
        {
          "internalType": "bool",
          "name": "is721",
          "type": "bool"
        },
        {
          "internalType": "address",
          "name": "nft",
          "type": "address"
        },
        {
          "internalType": "uint256",
          "name": "tokenId",
          "type": "uint256"
        },
        {
          "internalType": "uint256",
          "name": "tokenAmount",
          "type": "uint256"
        },
        {
          "internalType": "contract IERC20",
          "name": "sellToken",
          "type": "address"
        },
        {
          "internalType": "uint256",
          "name": "minPrice",
          "type": "uint256"
        },
        {
          "internalType": "uint256",
          "name": "maxPrice",
          "type": "uint256"
        },
        {
          "internalType": "uint256",
          "name": "startBlock",
          "type": "uint256"
        },
        {
          "internalType": "uint256",
          "name": "duration",
          "type": "uint256"
        }
      ],
      "name": "makeOrder",
      "outputs": [
        {
          "internalType": "uint256",
          "name": "",
          "type": "uint256"
        }
      ],
      "stateMutability": "nonpayable",
      "type": "function"
    },
    {
      "inputs": [
        {
          "internalType": "address",
          "name": "operator",
          "type": "address"
        },
        {
          "internalType": "address",
          "name": "",
          "type": "address"
        },
        {
          "internalType": "uint256[]",
          "name": "",
          "type": "uint256[]"
        },
        {
          "internalType": "uint256[]",
          "name": "",
          "type": "uint256[]"
        },
        {
          "internalType": "bytes",
          "name": "",
          "type": "bytes"
        }
      ],
      "name": "onERC1155BatchReceived",
      "outputs": [
        {
          "internalType": "bytes4",
          "name": "",
          "type": "bytes4"
        }
      ],
      "stateMutability": "view",
      "type": "function"
    },
    {
      "inputs": [
        {
          "internalType": "address",
          "name": "operator",
          "type": "address"
        },
        {
          "internalType": "address",
          "name": "",
          "type": "address"
        },
        {
          "internalType": "uint256",
          "name": "",
          "type": "uint256"
        },
        {
          "internalType": "uint256",
          "name": "",
          "type": "uint256"
        },
        {
          "internalType": "bytes",
          "name": "",
          "type": "bytes"
        }
      ],
      "name": "onERC1155Received",
      "outputs": [
        {
          "internalType": "bytes4",
          "name": "",
          "type": "bytes4"
        }
      ],
      "stateMutability": "view",
      "type": "function"
    },
    {
      "inputs": [
        {
          "internalType": "address",
          "name": "operator",
          "type": "address"
        },
        {
          "internalType": "address",
          "name": "",
          "type": "address"
        },
        {
          "internalType": "uint256",
          "name": "",
          "type": "uint256"
        },
        {
          "internalType": "bytes",
          "name": "",
          "type": "bytes"
        }
      ],
      "name": "onERC721Received",
      "outputs": [
        {
          "internalType": "bytes4",
          "name": "",
          "type": "bytes4"
        }
      ],
      "stateMutability": "view",
      "type": "function"
    },
    {
      "inputs": [
        {
          "internalType": "uint256",
          "name": "orderId",
          "type": "uint256"
        }
      ],
      "name": "orderBuyers",
      "outputs": [
        {
          "internalType": "address[]",
          "name": "",
          "type": "address[]"
        }
      ],
      "stateMutability": "view",
      "type": "function"
    },
    {
      "inputs": [
        {
          "internalType": "uint256",
          "name": "",
          "type": "uint256"
        }
      ],
      "name": "orders",
      "outputs": [
        {
          "internalType": "enum MarketState.OrderStatus",
          "name": "status",
          "type": "uint8"
        },
        {
          "internalType": "uint256",
          "name": "tokenId",
          "type": "uint256"
        },
        {
          "internalType": "address",
          "name": "nft",
          "type": "address"
        },
        {
          "internalType": "bool",
          "name": "is721",
          "type": "bool"
        },
        {
          "internalType": "address",
          "name": "seller",
          "type": "address"
        },
        {
          "internalType": "contract IERC20",
          "name": "sellToken",
          "type": "address"
        },
        {
          "internalType": "uint256",
          "name": "initAmount",
          "type": "uint256"
        },
        {
          "internalType": "uint256",
          "name": "minPrice",
          "type": "uint256"
        },
        {
          "internalType": "uint256",
          "name": "maxPrice",
          "type": "uint256"
        },
        {
          "internalType": "uint256",
          "name": "startBlock",
          "type": "uint256"
        },
        {
          "internalType": "uint256",
          "name": "duration",
          "type": "uint256"
        },
        {
          "internalType": "uint256",
          "name": "amount",
          "type": "uint256"
        },
        {
          "internalType": "uint256",
          "name": "finalPrice",
          "type": "uint256"
        }
      ],
      "stateMutability": "view",
      "type": "function"
    },
    {
      "inputs": [],
      "name": "ordersNum",
      "outputs": [
        {
          "internalType": "uint256",
          "name": "",
          "type": "uint256"
        }
      ],
      "stateMutability": "view",
      "type": "function"
    },
    {
      "inputs": [],
      "name": "owner",
      "outputs": [
        {
          "internalType": "address",
          "name": "",
          "type": "address"
        }
      ],
      "stateMutability": "view",
      "type": "function"
    },
    {
      "inputs": [],
      "name": "renounceOwnership",
      "outputs": [],
      "stateMutability": "nonpayable",
      "type": "function"
    },
    {
      "inputs": [
        {
          "internalType": "address",
          "name": "nft",
          "type": "address"
        },
        {
          "internalType": "bool",
          "name": "supported",
          "type": "bool"
        }
      ],
      "name": "setSupportedNFT",
      "outputs": [],
      "stateMutability": "nonpayable",
      "type": "function"
    },
    {
      "inputs": [
        {
          "internalType": "address",
          "name": "",
          "type": "address"
        }
      ],
      "name": "supportedNFT",
      "outputs": [
        {
          "internalType": "bool",
          "name": "",
          "type": "bool"
        }
      ],
      "stateMutability": "view",
      "type": "function"
    },
    {
      "inputs": [
        {
          "internalType": "bytes4",
          "name": "interfaceId",
          "type": "bytes4"
        }
      ],
      "name": "supportsInterface",
      "outputs": [
        {
          "internalType": "bool",
          "name": "",
          "type": "bool"
        }
      ],
      "stateMutability": "pure",
      "type": "function"
    },
    {
      "inputs": [
        {
          "internalType": "uint256",
          "name": "orderId",
          "type": "uint256"
        },
        {
          "internalType": "uint256",
          "name": "amountOut",
          "type": "uint256"
        }
      ],
      "name": "takeOrder",
      "outputs": [
        {
          "internalType": "bool",
          "name": "",
          "type": "bool"
        }
      ],
      "stateMutability": "payable",
      "type": "function"
    },
    {
      "inputs": [
        {
          "internalType": "address",
          "name": "newOwner",
          "type": "address"
        }
      ],
      "name": "transferOwnership",
      "outputs": [],
      "stateMutability": "nonpayable",
      "type": "function"
    }
  ],
  "bytecode": "0x608060405234801561001057600080fd5b50600080546001600160a01b031916339081178255604051819083907f8be0079c531659141344cd1fd0a4f28419497f9722a3daafe3b4186f6b6457e0908290a350600180546001600160a01b0319166001600160a01b0392909216919091179055612301806100816000396000f3fe60806040526004361061010e5760003560e01c80638da5cb5b116100a5578063bc197c8111610074578063f23a6e6111610059578063f23a6e61146103f8578063f2fde38b14610418578063f972e9621461043857600080fd5b8063bc197c81146103b8578063e7572230146103d857600080fd5b80638da5cb5b14610257578063968c48df146102a3578063a85c38ef146102c3578063b5ec79941461038b57600080fd5b80634e9c66c2116100e15780634e9c66c2146101d0578063514fcac7146101f0578063566a7ac314610210578063715018a61461024057600080fd5b806301ffc9a714610113578063150b7a02146101485780632eab93cb146101995780633d42e588146101ac575b600080fd5b34801561011f57600080fd5b5061013361012e366004611fd7565b610465565b60405190151581526020015b60405180910390f35b34801561015457600080fd5b50610168610163366004611e39565b6104fe565b6040517fffffffff00000000000000000000000000000000000000000000000000000000909116815260200161013f565b6101336101a736600461202f565b610551565b3480156101b857600080fd5b506101c260025481565b60405190815260200161013f565b3480156101dc57600080fd5b506101c26101eb366004611f58565b610ac3565b3480156101fc57600080fd5b5061013361020b366004612017565b611169565b34801561021c57600080fd5b5061013361022b366004611d62565b60046020526000908152604090205460ff1681565b34801561024c57600080fd5b50610255611573565b005b34801561026357600080fd5b5060005473ffffffffffffffffffffffffffffffffffffffff165b60405173ffffffffffffffffffffffffffffffffffffffff909116815260200161013f565b3480156102af57600080fd5b506102556102be366004611f24565b611663565b3480156102cf57600080fd5b506103726102de366004612017565b600360208190526000918252604090912080546001820154600283015493830154600484015460058501546006860154600787015460088801546009890154600a8a0154600b909a015460ff998a169b989a73ffffffffffffffffffffffffffffffffffffffff808b169b74010000000000000000000000000000000000000000909b04909a16999889169890971696908d565b60405161013f9d9c9b9a999897969594939291906120cd565b34801561039757600080fd5b5060015461027e9073ffffffffffffffffffffffffffffffffffffffff1681565b3480156103c457600080fd5b506101686103d3366004611d7e565b611772565b3480156103e457600080fd5b506101c26103f3366004612017565b6117c8565b34801561040457600080fd5b50610168610413366004611eaa565b6119a3565b34801561042457600080fd5b50610255610433366004611d62565b6119f7565b34801561044457600080fd5b50610458610453366004612017565b611ba8565b60405161013f9190612073565b60007f150b7a02000000000000000000000000000000000000000000000000000000007fffffffff00000000000000000000000000000000000000000000000000000000831614806104f857507f4e2312e0000000000000000000000000000000000000000000000000000000007fffffffff000000000000000000000000000000000000000000000000000000008316145b92915050565b60003073ffffffffffffffffffffffffffffffffffffffff87161461052557506000610548565b507f150b7a02000000000000000000000000000000000000000000000000000000005b95945050505050565b6000828152600360205260408120600a8101548311156105d2576040517f08c379a000000000000000000000000000000000000000000000000000000000815260206004820152601660248201527f696e73756666696369656e7420616d6f756e744f75740000000000000000000060448201526064015b60405180910390fd5b6000831161063c576040517f08c379a000000000000000000000000000000000000000000000000000000000815260206004820152601160248201527f696c6c6567616c20616d6f756e744f757400000000000000000000000000000060448201526064016105c9565b6000815460ff16600481111561067b577f4e487b7100000000000000000000000000000000000000000000000000000000600052602160045260246000fd5b14806106c357506001815460ff1660048111156106c1577f4e487b7100000000000000000000000000000000000000000000000000000000600052602160045260246000fd5b145b610729576040517f08c379a000000000000000000000000000000000000000000000000000000000815260206004820152601460248201527f696c6c6567616c206f726465722073746174757300000000000000000000000060448201526064016105c9565b6000610734856117c8565b9050600061074285836121ea565b60015460048581015460038701546040517fb730741600000000000000000000000000000000000000000000000000000000815273ffffffffffffffffffffffffffffffffffffffff92831693810193909352336024840152811660448301526064820184905292935091169063b730741690349060840160408051808303818588803b1580156107d257600080fd5b505af11580156107e6573d6000803e3d6000fd5b50505050506040513d601f19601f8201168201806040525081019061080b9190612050565b5050600283015474010000000000000000000000000000000000000000900460ff16156108cf57600283015460018401546040517f42842e0e000000000000000000000000000000000000000000000000000000008152306004820152336024820152604481019190915273ffffffffffffffffffffffffffffffffffffffff909116906342842e0e90606401600060405180830381600087803b1580156108b257600080fd5b505af11580156108c6573d6000803e3d6000fd5b5050505061097d565b600283015460018401546040517ff242432a00000000000000000000000000000000000000000000000000000000815230600482015233602482015260448101919091526064810187905260a06084820152600060a482015273ffffffffffffffffffffffffffffffffffffffff9091169063f242432a9060c401600060405180830381600087803b15801561096457600080fd5b505af1158015610978573d6000803e3d6000fd5b505050505b8483600a0160008282546109919190612227565b9091555050600a8301546109d45782547fffffffffffffffffffffffffffffffffffffffffffffffffffffffffffffff00166002178355600b83018290556109fe565b82547fffffffffffffffffffffffffffffffffffffffffffffffffffffffffffffff001660011783555b600c8301805460018082018355600092835260209283902090910180547fffffffffffffffffffffffff00000000000000000000000000000000000000001633908117909155600286015491860154604080518b81529485019290925273ffffffffffffffffffffffffffffffffffffffff9092169083015260608201526080810186905260a081018290527fb2b6e11a209ccdc19a4f6ef9f991fc44e313758777e4c448f2d1a91e2abd92079060c00160405180910390a150600195945050505050565b73ffffffffffffffffffffffffffffffffffffffff881660009081526004602052604081205460ff16610b52576040517f08c379a000000000000000000000000000000000000000000000000000000000815260206004820152600f60248201527f756e737570706f72746564204e4654000000000000000000000000000000000060448201526064016105c9565b84841015610bbc576040517f08c379a000000000000000000000000000000000000000000000000000000000815260206004820152600d60248201527f696c6c6567616c2070726963650000000000000000000000000000000000000060448201526064016105c9565b43831015610c26576040517f08c379a000000000000000000000000000000000000000000000000000000000815260206004820152601360248201527f696c6c6567616c20737461727420626c6f636b0000000000000000000000000060448201526064016105c9565b60008211610c90576040517f08c379a000000000000000000000000000000000000000000000000000000000815260206004820152601060248201527f696c6c6567616c206475726174696f6e0000000000000000000000000000000060448201526064016105c9565b8915610d91576040517f42842e0e0000000000000000000000000000000000000000000000000000000081523360048201523060248201526044810189905273ffffffffffffffffffffffffffffffffffffffff8a16906342842e0e90606401600060405180830381600087803b158015610d0a57600080fd5b505af1158015610d1e573d6000803e3d6000fd5b5050505086600114610d8c576040517f08c379a000000000000000000000000000000000000000000000000000000000815260206004820152601460248201527f696c6c6567616c20746f6b656e20616d6f756e7400000000000000000000000060448201526064016105c9565b610e33565b6040517ff242432a000000000000000000000000000000000000000000000000000000008152336004820152306024820152604481018990526064810188905260a06084820152600060a482015273ffffffffffffffffffffffffffffffffffffffff8a169063f242432a9060c401600060405180830381600087803b158015610e1a57600080fd5b505af1158015610e2e573d6000803e3d6000fd5b505050505b60028054906000610e438361223e565b9091555050604080516101c0810190915280600081526020018981526020018a73ffffffffffffffffffffffffffffffffffffffff1681526020018b151581526020013373ffffffffffffffffffffffffffffffffffffffff1681526020018773ffffffffffffffffffffffffffffffffffffffff16815260200188815260200186815260200185815260200184815260200183815260200188815260200160008152602001600067ffffffffffffffff811115610f2a577f4e487b7100000000000000000000000000000000000000000000000000000000600052604160045260246000fd5b604051908082528060200260200182016040528015610f53578160200160208202803683370190505b50905260025460009081526003602052604090208151815482907fffffffffffffffffffffffffffffffffffffffffffffffffffffffffffffff00166001836004811115610fca577f4e487b7100000000000000000000000000000000000000000000000000000000600052602160045260246000fd5b0217905550602082810151600183015560408301516002830180546060860151151574010000000000000000000000000000000000000000027fffffffffffffffffffffff00000000000000000000000000000000000000000090911673ffffffffffffffffffffffffffffffffffffffff9384161717905560808401516003840180549183167fffffffffffffffffffffffff000000000000000000000000000000000000000092831617905560a085015160048501805491909316911617905560c0830151600583015560e08301516006830155610100830151600783015561012083015160088301556101408301516009830155610160830151600a830155610180830151600b8301556101a083015180516110ef92600c8501920190611c24565b50506002546040805191825233602083015273ffffffffffffffffffffffffffffffffffffffff8c1690820152606081018a9052608081018990527f28bdd220a5ddfba439a908328fd4d9d0f0b413a04dd63ebe4753bfc7f2bb39b6915060a00160405180910390a1506002549998505050505050505050565b600081815260036020819052604082209081015473ffffffffffffffffffffffffffffffffffffffff1633146111fb576040517f08c379a000000000000000000000000000000000000000000000000000000000815260206004820152601060248201527f73686f756c642062652073656c6c65720000000000000000000000000000000060448201526064016105c9565b6000815460ff16600481111561123a577f4e487b7100000000000000000000000000000000000000000000000000000000600052602160045260246000fd5b148061128257506001815460ff166004811115611280577f4e487b7100000000000000000000000000000000000000000000000000000000600052602160045260246000fd5b145b6112e8576040517f08c379a000000000000000000000000000000000000000000000000000000000815260206004820152601460248201527f696c6c6567616c206f726465722073746174757300000000000000000000000060448201526064016105c9565b600281015474010000000000000000000000000000000000000000900460ff16156113aa57600281015460018201546040517f42842e0e000000000000000000000000000000000000000000000000000000008152306004820152336024820152604481019190915273ffffffffffffffffffffffffffffffffffffffff909116906342842e0e90606401600060405180830381600087803b15801561138d57600080fd5b505af11580156113a1573d6000803e3d6000fd5b5050505061145b565b60028101546001820154600a8301546040517ff242432a0000000000000000000000000000000000000000000000000000000081523060048201523360248201526044810192909252606482015260a06084820152600060a482015273ffffffffffffffffffffffffffffffffffffffff9091169063f242432a9060c401600060405180830381600087803b15801561144257600080fd5b505af1158015611456573d6000803e3d6000fd5b505050505b6000600a8201819055815460ff1660048111156114a1577f4e487b7100000000000000000000000000000000000000000000000000000000600052602160045260246000fd5b14156114d55780547fffffffffffffffffffffffffffffffffffffffffffffffffffffffffffffff001660041781556114ff565b80547fffffffffffffffffffffffffffffffffffffffffffffffffffffffffffffff001660031781555b60028101546001820154600a8301546040805187815273ffffffffffffffffffffffffffffffffffffffff909416602085015283019190915260608201527fbde5b95b9839d944eb224fb819f450d307071d6c4e709af4f4fe2d81d6acc4809060800160405180910390a150600192915050565b60005473ffffffffffffffffffffffffffffffffffffffff1633146115f4576040517f08c379a000000000000000000000000000000000000000000000000000000000815260206004820181905260248201527f4f776e61626c653a2063616c6c6572206973206e6f7420746865206f776e657260448201526064016105c9565b6000805460405173ffffffffffffffffffffffffffffffffffffffff909116907f8be0079c531659141344cd1fd0a4f28419497f9722a3daafe3b4186f6b6457e0908390a3600080547fffffffffffffffffffffffff0000000000000000000000000000000000000000169055565b60005473ffffffffffffffffffffffffffffffffffffffff1633146116e4576040517f08c379a000000000000000000000000000000000000000000000000000000000815260206004820181905260248201527f4f776e61626c653a2063616c6c6572206973206e6f7420746865206f776e657260448201526064016105c9565b73ffffffffffffffffffffffffffffffffffffffff821660008181526004602090815260409182902080547fffffffffffffffffffffffffffffffffffffffffffffffffffffffffffffff00168515159081179091558251938452908301527fcc7f7c435af03f2c2f2a5dfc84ddce0660a628dcc938b91d536ce0b37435db8a910160405180910390a15050565b60003073ffffffffffffffffffffffffffffffffffffffff8a1614611799575060006117bc565b507fbc197c81000000000000000000000000000000000000000000000000000000005b98975050505050505050565b6000818152600360208190526040822090815460ff166004811115611816577f4e487b7100000000000000000000000000000000000000000000000000000000600052602160045260246000fd5b1415801561186157506004815460ff16600481111561185e577f4e487b7100000000000000000000000000000000000000000000000000000000600052602160045260246000fd5b14155b6118c7576040517f08c379a000000000000000000000000000000000000000000000000000000000815260206004820152600e60248201527f63616e63656c6564206f7264657200000000000000000000000000000000000060448201526064016105c9565b6002815460ff166004811115611906577f4e487b7100000000000000000000000000000000000000000000000000000000600052602160045260246000fd5b141561191657600b015492915050565b8060090154816008015461192a9190612199565b43111561193b576006015492915050565b8060080154431015611951576007015492915050565b600981015460088201546119659043612227565b826006015483600701546119799190612227565b61198391906121ea565b61198d91906121b1565b816007015461199c9190612227565b9392505050565b60003073ffffffffffffffffffffffffffffffffffffffff8816146119ca575060006119ed565b507ff23a6e61000000000000000000000000000000000000000000000000000000005b9695505050505050565b60005473ffffffffffffffffffffffffffffffffffffffff163314611a78576040517f08c379a000000000000000000000000000000000000000000000000000000000815260206004820181905260248201527f4f776e61626c653a2063616c6c6572206973206e6f7420746865206f776e657260448201526064016105c9565b73ffffffffffffffffffffffffffffffffffffffff8116611b1b576040517f08c379a000000000000000000000000000000000000000000000000000000000815260206004820152602660248201527f4f776e61626c653a206e6577206f776e657220697320746865207a65726f206160448201527f646472657373000000000000000000000000000000000000000000000000000060648201526084016105c9565b6000805460405173ffffffffffffffffffffffffffffffffffffffff808516939216917f8be0079c531659141344cd1fd0a4f28419497f9722a3daafe3b4186f6b6457e091a3600080547fffffffffffffffffffffffff00000000000000000000000000000000000000001673ffffffffffffffffffffffffffffffffffffffff92909216919091179055565b600081815260036020908152604091829020600c01805483518184028101840190945280845260609392830182828015611c1857602002820191906000526020600020905b815473ffffffffffffffffffffffffffffffffffffffff168152600190910190602001808311611bed575b50505050509050919050565b828054828255906000526020600020908101928215611c9e579160200282015b82811115611c9e57825182547fffffffffffffffffffffffff00000000000000000000000000000000000000001673ffffffffffffffffffffffffffffffffffffffff909116178255602090920191600190910190611c44565b50611caa929150611cae565b5090565b5b80821115611caa5760008155600101611caf565b60008083601f840112611cd4578182fd5b50813567ffffffffffffffff811115611ceb578182fd5b6020830191508360208260051b8501011115611d0657600080fd5b9250929050565b80358015158114611d1d57600080fd5b919050565b60008083601f840112611d33578182fd5b50813567ffffffffffffffff811115611d4a578182fd5b602083019150836020828501011115611d0657600080fd5b600060208284031215611d73578081fd5b813561199c816122a6565b60008060008060008060008060a0898b031215611d99578384fd5b8835611da4816122a6565b97506020890135611db4816122a6565b9650604089013567ffffffffffffffff80821115611dd0578586fd5b611ddc8c838d01611cc3565b909850965060608b0135915080821115611df4578586fd5b611e008c838d01611cc3565b909650945060808b0135915080821115611e18578384fd5b50611e258b828c01611d22565b999c989b5096995094979396929594505050565b600080600080600060808688031215611e50578081fd5b8535611e5b816122a6565b94506020860135611e6b816122a6565b935060408601359250606086013567ffffffffffffffff811115611e8d578182fd5b611e9988828901611d22565b969995985093965092949392505050565b60008060008060008060a08789031215611ec2578182fd5b8635611ecd816122a6565b95506020870135611edd816122a6565b94506040870135935060608701359250608087013567ffffffffffffffff811115611f06578283fd5b611f1289828a01611d22565b979a9699509497509295939492505050565b60008060408385031215611f36578182fd5b8235611f41816122a6565b9150611f4f60208401611d0d565b90509250929050565b60008060008060008060008060006101208a8c031215611f76578081fd5b611f7f8a611d0d565b985060208a0135611f8f816122a6565b975060408a0135965060608a0135955060808a0135611fad816122a6565b989b979a50959894979660a0860135965060c08601359560e0810135955061010001359350915050565b600060208284031215611fe8578081fd5b81357fffffffff000000000000000000000000000000000000000000000000000000008116811461199c578182fd5b600060208284031215612028578081fd5b5035919050565b60008060408385031215612041578182fd5b50508035926020909101359150565b60008060408385031215612062578182fd5b505080516020909101519092909150565b6020808252825182820181905260009190848201906040850190845b818110156120c157835173ffffffffffffffffffffffffffffffffffffffff168352928401929184019160010161208f565b50909695505050505050565b6101a0810160058f10612109577f4e487b7100000000000000000000000000000000000000000000000000000000600052602160045260246000fd5b8e82528d6020830152612134604083018e73ffffffffffffffffffffffffffffffffffffffff169052565b9a1515606082015273ffffffffffffffffffffffffffffffffffffffff998a1660808201529790981660a088015260c087019590955260e086019390935261010085019190915261012084015261014083015261016082015261018001529392505050565b600082198211156121ac576121ac612277565b500190565b6000826121e5577f4e487b710000000000000000000000000000000000000000000000000000000081526012600452602481fd5b500490565b6000817fffffffffffffffffffffffffffffffffffffffffffffffffffffffffffffffff048311821515161561222257612222612277565b500290565b60008282101561223957612239612277565b500390565b60007fffffffffffffffffffffffffffffffffffffffffffffffffffffffffffffffff82141561227057612270612277565b5060010190565b7f4e487b7100000000000000000000000000000000000000000000000000000000600052601160045260246000fd5b73ffffffffffffffffffffffffffffffffffffffff811681146122c857600080fd5b5056fea26469706673582212200d242a3caea632507b617bae154d47e3d718c2608f0b269622b9b8d28c0d336164736f6c63430008040033",
  "linkReferences": {},
  "deployedLinkReferences": {}
}