{
  "_format": "hh-sol-artifact-1",
  "contractName": "MetaMEME",
  "sourceName": "contracts/nft/MetaMEME.sol",
  "abi": [
    {
      "inputs": [
        {
          "internalType": "contract IRPCRouter",
          "name": "router",
          "type": "address"
        },
        {
          "internalType": "string",
          "name": "uri",
          "type": "string"
        }
      ],
      "stateMutability": "nonpayable",
      "type": "constructor"
    },
    {
      "anonymous": false,
      "inputs": [
        {
          "indexed": true,
          "internalType": "address",
          "name": "owner",
          "type": "address"
        },
        {
          "indexed": true,
          "internalType": "address",
          "name": "approved",
          "type": "address"
        },
        {
          "indexed": true,
          "internalType": "uint256",
          "name": "tokenId",
          "type": "uint256"
        }
      ],
      "name": "Approval",
      "type": "event"
    },
    {
      "anonymous": false,
      "inputs": [
        {
          "indexed": true,
          "internalType": "address",
          "name": "owner",
          "type": "address"
        },
        {
          "indexed": true,
          "internalType": "address",
          "name": "operator",
          "type": "address"
        },
        {
          "indexed": false,
          "internalType": "bool",
          "name": "approved",
          "type": "bool"
        }
      ],
      "name": "ApprovalForAll",
      "type": "event"
    },
    {
      "anonymous": false,
      "inputs": [
        {
          "indexed": false,
          "internalType": "string",
          "name": "oldURI",
          "type": "string"
        },
        {
          "indexed": false,
          "internalType": "string",
          "name": "newURI",
          "type": "string"
        }
      ],
      "name": "BaseURIUpdated",
      "type": "event"
    },
    {
      "anonymous": false,
      "inputs": [
        {
          "indexed": false,
          "internalType": "bool",
          "name": "paused",
          "type": "bool"
        }
      ],
      "name": "MintPaused",
      "type": "event"
    },
    {
      "anonymous": false,
      "inputs": [
        {
          "indexed": true,
          "internalType": "address",
          "name": "previousOwner",
          "type": "address"
        },
        {
          "indexed": true,
          "internalType": "address",
          "name": "newOwner",
          "type": "address"
        }
      ],
      "name": "OwnershipTransferred",
      "type": "event"
    },
    {
      "anonymous": false,
      "inputs": [
        {
          "indexed": true,
          "internalType": "address",
          "name": "from",
          "type": "address"
        },
        {
          "indexed": true,
          "internalType": "address",
          "name": "to",
          "type": "address"
        },
        {
          "indexed": true,
          "internalType": "uint256",
          "name": "tokenId",
          "type": "uint256"
        }
      ],
      "name": "Transfer",
      "type": "event"
    },
    {
      "inputs": [
        {
          "internalType": "address",
          "name": "to",
          "type": "address"
        },
        {
          "internalType": "uint256",
          "name": "tokenId",
          "type": "uint256"
        }
      ],
      "name": "approve",
      "outputs": [],
      "stateMutability": "nonpayable",
      "type": "function"
    },
    {
      "inputs": [
        {
          "internalType": "address",
          "name": "owner",
          "type": "address"
        }
      ],
      "name": "balanceOf",
      "outputs": [
        {
          "internalType": "uint256",
          "name": "",
          "type": "uint256"
        }
      ],
      "stateMutability": "view",
      "type": "function"
    },
    {
      "inputs": [],
      "name": "baseURI",
      "outputs": [
        {
          "internalType": "string",
          "name": "",
          "type": "string"
        }
      ],
      "stateMutability": "view",
      "type": "function"
    },
    {
      "inputs": [
        {
          "internalType": "uint256",
          "name": "tokenId",
          "type": "uint256"
        }
      ],
      "name": "getApproved",
      "outputs": [
        {
          "internalType": "address",
          "name": "",
          "type": "address"
        }
      ],
      "stateMutability": "view",
      "type": "function"
    },
    {
      "inputs": [
        {
          "internalType": "address",
          "name": "owner",
          "type": "address"
        },
        {
          "internalType": "address",
          "name": "operator",
          "type": "address"
        }
      ],
      "name": "isApprovedForAll",
      "outputs": [
        {
          "internalType": "bool",
          "name": "",
          "type": "bool"
        }
      ],
      "stateMutability": "view",
      "type": "function"
    },
    {
      "inputs": [
        {
          "internalType": "address",
          "name": "to",
          "type": "address"
        }
      ],
      "name": "mint",
      "outputs": [],
      "stateMutability": "nonpayable",
      "type": "function"
    },
    {
      "inputs": [],
      "name": "mintPaused",
      "outputs": [
        {
          "internalType": "bool",
          "name": "",
          "type": "bool"
        }
      ],
      "stateMutability": "view",
      "type": "function"
    },
    {
      "inputs": [
        {
          "internalType": "uint256",
          "name": "",
          "type": "uint256"
        }
      ],
      "name": "minter",
      "outputs": [
        {
          "internalType": "address",
          "name": "",
          "type": "address"
        }
      ],
      "stateMutability": "view",
      "type": "function"
    },
    {
      "inputs": [],
      "name": "name",
      "outputs": [
        {
          "internalType": "string",
          "name": "",
          "type": "string"
        }
      ],
      "stateMutability": "view",
      "type": "function"
    },
    {
      "inputs": [],
      "name": "owner",
      "outputs": [
        {
          "internalType": "address",
          "name": "",
          "type": "address"
        }
      ],
      "stateMutability": "view",
      "type": "function"
    },
    {
      "inputs": [
        {
          "internalType": "uint256",
          "name": "tokenId",
          "type": "uint256"
        }
      ],
      "name": "ownerOf",
      "outputs": [
        {
          "internalType": "address",
          "name": "",
          "type": "address"
        }
      ],
      "stateMutability": "view",
      "type": "function"
    },
    {
      "inputs": [
        {
          "internalType": "bool",
          "name": "paused",
          "type": "bool"
        }
      ],
      "name": "pauseMint",
      "outputs": [],
      "stateMutability": "nonpayable",
      "type": "function"
    },
    {
      "inputs": [],
      "name": "renounceOwnership",
      "outputs": [],
      "stateMutability": "nonpayable",
      "type": "function"
    },
    {
      "inputs": [],
      "name": "rpcRouter",
      "outputs": [
        {
          "internalType": "contract IRPCRouter",
          "name": "",
          "type": "address"
        }
      ],
      "stateMutability": "view",
      "type": "function"
    },
    {
      "inputs": [
        {
          "internalType": "address",
          "name": "to",
          "type": "address"
        }
      ],
      "name": "safeMint",
      "outputs": [],
      "stateMutability": "nonpayable",
      "type": "function"
    },
    {
      "inputs": [
        {
          "internalType": "address",
          "name": "from",
          "type": "address"
        },
        {
          "internalType": "address",
          "name": "to",
          "type": "address"
        },
        {
          "internalType": "uint256",
          "name": "tokenId",
          "type": "uint256"
        }
      ],
      "name": "safeTransferFrom",
      "outputs": [],
      "stateMutability": "nonpayable",
      "type": "function"
    },
    {
      "inputs": [
        {
          "internalType": "address",
          "name": "from",
          "type": "address"
        },
        {
          "internalType": "address",
          "name": "to",
          "type": "address"
        },
        {
          "internalType": "uint256",
          "name": "tokenId",
          "type": "uint256"
        },
        {
          "internalType": "bytes",
          "name": "_data",
          "type": "bytes"
        }
      ],
      "name": "safeTransferFrom",
      "outputs": [],
      "stateMutability": "nonpayable",
      "type": "function"
    },
    {
      "inputs": [
        {
          "internalType": "address",
          "name": "operator",
          "type": "address"
        },
        {
          "internalType": "bool",
          "name": "approved",
          "type": "bool"
        }
      ],
      "name": "setApprovalForAll",
      "outputs": [],
      "stateMutability": "nonpayable",
      "type": "function"
    },
    {
      "inputs": [
        {
          "internalType": "string",
          "name": "newBaseURI",
          "type": "string"
        }
      ],
      "name": "setBaseURI",
      "outputs": [],
      "stateMutability": "nonpayable",
      "type": "function"
    },
    {
      "inputs": [
        {
          "internalType": "bytes4",
          "name": "interfaceId",
          "type": "bytes4"
        }
      ],
      "name": "supportsInterface",
      "outputs": [
        {
          "internalType": "bool",
          "name": "",
          "type": "bool"
        }
      ],
      "stateMutability": "view",
      "type": "function"
    },
    {
      "inputs": [],
      "name": "symbol",
      "outputs": [
        {
          "internalType": "string",
          "name": "",
          "type": "string"
        }
      ],
      "stateMutability": "view",
      "type": "function"
    },
    {
      "inputs": [],
      "name": "tokenIndex",
      "outputs": [
        {
          "internalType": "uint256",
          "name": "",
          "type": "uint256"
        }
      ],
      "stateMutability": "view",
      "type": "function"
    },
    {
      "inputs": [
        {
          "internalType": "uint256",
          "name": "tokenId",
          "type": "uint256"
        }
      ],
      "name": "tokenURI",
      "outputs": [
        {
          "internalType": "string",
          "name": "",
          "type": "string"
        }
      ],
      "stateMutability": "view",
      "type": "function"
    },
    {
      "inputs": [
        {
          "internalType": "address",
          "name": "from",
          "type": "address"
        },
        {
          "internalType": "address",
          "name": "to",
          "type": "address"
        },
        {
          "internalType": "uint256",
          "name": "tokenId",
          "type": "uint256"
        }
      ],
      "name": "transferFrom",
      "outputs": [],
      "stateMutability": "nonpayable",
      "type": "function"
    },
    {
      "inputs": [
        {
          "internalType": "address",
          "name": "newOwner",
          "type": "address"
        }
      ],
      "name": "transferOwnership",
      "outputs": [],
      "stateMutability": "nonpayable",
      "type": "function"
    }
  ],
  "bytecode": "0x60806040523480156200001157600080fd5b5060405162002a1e38038062002a1e8339810160408190526200003491620001f2565b6040518060400160405280600c81526020016b506c617477696e204d454d4560a01b8152506040518060400160405280600c81526020016b504c415457494e2d4d454d4560a01b8152508160009080519060200190620000969291906200014c565b508051620000ac9060019060208401906200014c565b5050506000620000c16200014860201b60201c565b600680546001600160a01b0319166001600160a01b038316908117909155604051919250906000907f8be0079c531659141344cd1fd0a4f28419497f9722a3daafe3b4186f6b6457e0908290a350600780546001600160a01b0319166001600160a01b03841617905580516200013f9060099060208401906200014c565b5050506200033e565b3390565b8280546200015a90620002eb565b90600052602060002090601f0160209004810192826200017e5760008555620001c9565b82601f106200019957805160ff1916838001178555620001c9565b82800160010185558215620001c9579182015b82811115620001c9578251825591602001919060010190620001ac565b50620001d7929150620001db565b5090565b5b80821115620001d75760008155600101620001dc565b6000806040838503121562000205578182fd5b82516001600160a01b03811681146200021c578283fd5b602084810151919350906001600160401b03808211156200023b578384fd5b818601915086601f8301126200024f578384fd5b81518181111562000264576200026462000328565b604051601f8201601f19908116603f011681019083821181831017156200028f576200028f62000328565b816040528281528986848701011115620002a7578687fd5b8693505b82841015620002ca5784840186015181850187015292850192620002ab565b82841115620002db57868684830101525b8096505050505050509250929050565b600181811c908216806200030057607f821691505b602082108114156200032257634e487b7160e01b600052602260045260246000fd5b50919050565b634e487b7160e01b600052604160045260246000fd5b6126d0806200034e6000396000f3fe608060405234801561001057600080fd5b50600436106101a35760003560e01c806370a08231116100ee578063ac8d856c11610097578063d55f927311610071578063d55f927314610397578063e985e9c5146103a0578063f2fde38b146103e9578063f30e6e77146103fc57600080fd5b8063ac8d856c1461033b578063b88d4fde14610371578063c87b56dd1461038457600080fd5b80638da5cb5b116100c85780638da5cb5b1461030257806395d89b4114610320578063a22cb4651461032857600080fd5b806370a08231146102cc578063715018a6146102ed5780637e4831d3146102f557600080fd5b806340d097c3116101505780636352211e1161012a5780636352211e1461029e5780636a627842146102b15780636c0360eb146102c457600080fd5b806340d097c31461026557806342842e0e1461027857806355f804b31461028b57600080fd5b8063095ea7b311610181578063095ea7b31461021d57806315ceb8621461023257806323b872dd1461025257600080fd5b806301ffc9a7146101a857806306fdde03146101d0578063081812fc146101e5575b600080fd5b6101bb6101b636600461231b565b61040f565b60405190151581526020015b60405180910390f35b6101d86104f4565b6040516101c7919061248b565b6101f86101f3366004612399565b610586565b60405173ffffffffffffffffffffffffffffffffffffffff90911681526020016101c7565b61023061022b3660046122d8565b610665565b005b6007546101f89073ffffffffffffffffffffffffffffffffffffffff1681565b6102306102603660046121fb565b6107f2565b6102306102733660046121af565b610893565b6102306102863660046121fb565b6109c8565b610230610299366004612353565b6109e3565b6101f86102ac366004612399565b610b46565b6102306102bf3660046121af565b610bf8565b6101d8610d5c565b6102df6102da3660046121af565b610dea565b6040519081526020016101c7565b610230610eb8565b600a546101bb9060ff1681565b60065473ffffffffffffffffffffffffffffffffffffffff166101f8565b6101d8610fa8565b6102306103363660046122af565b610fb7565b6101f8610349366004612399565b600b6020526000908152604090205473ffffffffffffffffffffffffffffffffffffffff1681565b61023061037f366004612236565b6110ce565b6101d8610392366004612399565b611176565b6102df60085481565b6101bb6103ae3660046121c9565b73ffffffffffffffffffffffffffffffffffffffff918216600090815260056020908152604080832093909416825291909152205460ff1690565b6102306103f73660046121af565b611286565b61023061040a366004612301565b611438565b60007fffffffff0000000000000000000000000000000000000000000000000000000082167f80ac58cd0000000000000000000000000000000000000000000000000000000014806104a257507fffffffff0000000000000000000000000000000000000000000000000000000082167f5b5e139f00000000000000000000000000000000000000000000000000000000145b806104ee57507f01ffc9a7000000000000000000000000000000000000000000000000000000007fffffffff000000000000000000000000000000000000000000000000000000008316145b92915050565b6060600080546105039061253b565b80601f016020809104026020016040519081016040528092919081815260200182805461052f9061253b565b801561057c5780601f106105515761010080835404028352916020019161057c565b820191906000526020600020905b81548152906001019060200180831161055f57829003601f168201915b5050505050905090565b60008181526002602052604081205473ffffffffffffffffffffffffffffffffffffffff1661063c576040517f08c379a000000000000000000000000000000000000000000000000000000000815260206004820152602c60248201527f4552433732313a20617070726f76656420717565727920666f72206e6f6e657860448201527f697374656e7420746f6b656e000000000000000000000000000000000000000060648201526084015b60405180910390fd5b5060009081526004602052604090205473ffffffffffffffffffffffffffffffffffffffff1690565b600061067082610b46565b90508073ffffffffffffffffffffffffffffffffffffffff168373ffffffffffffffffffffffffffffffffffffffff16141561072e576040517f08c379a000000000000000000000000000000000000000000000000000000000815260206004820152602160248201527f4552433732313a20617070726f76616c20746f2063757272656e74206f776e6560448201527f72000000000000000000000000000000000000000000000000000000000000006064820152608401610633565b3373ffffffffffffffffffffffffffffffffffffffff82161480610757575061075781336103ae565b6107e3576040517f08c379a000000000000000000000000000000000000000000000000000000000815260206004820152603860248201527f4552433732313a20617070726f76652063616c6c6572206973206e6f74206f7760448201527f6e6572206e6f7220617070726f76656420666f7220616c6c00000000000000006064820152608401610633565b6107ed838361151e565b505050565b6107fc33826115be565b610888576040517f08c379a000000000000000000000000000000000000000000000000000000000815260206004820152603160248201527f4552433732313a207472616e736665722063616c6c6572206973206e6f74206f60448201527f776e6572206e6f7220617070726f7665640000000000000000000000000000006064820152608401610633565b6107ed83838361172e565b600a5460ff1615610900576040517f08c379a000000000000000000000000000000000000000000000000000000000815260206004820152600b60248201527f6d696e74207061757365640000000000000000000000000000000000000000006044820152606401610633565b6007546040517f314d507400000000000000000000000000000000000000000000000000000000815233600482015273ffffffffffffffffffffffffffffffffffffffff9091169063314d507490602401602060405180830381600087803b15801561096b57600080fd5b505af115801561097f573d6000803e3d6000fd5b505050506040513d601f19601f820116820180604052508101906109a391906123b1565b506109b081600854611995565b600880549060006109c08361258f565b919050555050565b6107ed838383604051806020016040528060008152506110ce565b60065473ffffffffffffffffffffffffffffffffffffffff163314610a64576040517f08c379a000000000000000000000000000000000000000000000000000000000815260206004820181905260248201527f4f776e61626c653a2063616c6c6572206973206e6f7420746865206f776e65726044820152606401610633565b600060098054610a739061253b565b80601f0160208091040260200160405190810160405280929190818152602001828054610a9f9061253b565b8015610aec5780601f10610ac157610100808354040283529160200191610aec565b820191906000526020600020905b815481529060010190602001808311610acf57829003601f168201915b50508551939450610b0893600993506020870192509050612049565b507f309b29ded109b9e28fb9885757b3e0096eb75c51d23aa4635d68bcd569f6adc18183604051610b3a92919061249e565b60405180910390a15050565b60008181526002602052604081205473ffffffffffffffffffffffffffffffffffffffff16806104ee576040517f08c379a000000000000000000000000000000000000000000000000000000000815260206004820152602960248201527f4552433732313a206f776e657220717565727920666f72206e6f6e657869737460448201527f656e7420746f6b656e00000000000000000000000000000000000000000000006064820152608401610633565b600a5460ff1615610c65576040517f08c379a000000000000000000000000000000000000000000000000000000000815260206004820152600b60248201527f6d696e74207061757365640000000000000000000000000000000000000000006044820152606401610633565b6007546040517f314d507400000000000000000000000000000000000000000000000000000000815233600482015273ffffffffffffffffffffffffffffffffffffffff9091169063314d507490602401602060405180830381600087803b158015610cd057600080fd5b505af1158015610ce4573d6000803e3d6000fd5b505050506040513d601f19601f82011682018060405250810190610d0891906123b1565b50610d15816008546119b3565b600880546000908152600b6020526040812080547fffffffffffffffffffffffff00000000000000000000000000000000000000001633179055815491906109c08361258f565b60098054610d699061253b565b80601f0160208091040260200160405190810160405280929190818152602001828054610d959061253b565b8015610de25780601f10610db757610100808354040283529160200191610de2565b820191906000526020600020905b815481529060010190602001808311610dc557829003601f168201915b505050505081565b600073ffffffffffffffffffffffffffffffffffffffff8216610e8f576040517f08c379a000000000000000000000000000000000000000000000000000000000815260206004820152602a60248201527f4552433732313a2062616c616e636520717565727920666f7220746865207a6560448201527f726f2061646472657373000000000000000000000000000000000000000000006064820152608401610633565b5073ffffffffffffffffffffffffffffffffffffffff1660009081526003602052604090205490565b60065473ffffffffffffffffffffffffffffffffffffffff163314610f39576040517f08c379a000000000000000000000000000000000000000000000000000000000815260206004820181905260248201527f4f776e61626c653a2063616c6c6572206973206e6f7420746865206f776e65726044820152606401610633565b60065460405160009173ffffffffffffffffffffffffffffffffffffffff16907f8be0079c531659141344cd1fd0a4f28419497f9722a3daafe3b4186f6b6457e0908390a3600680547fffffffffffffffffffffffff0000000000000000000000000000000000000000169055565b6060600180546105039061253b565b73ffffffffffffffffffffffffffffffffffffffff8216331415611037576040517f08c379a000000000000000000000000000000000000000000000000000000000815260206004820152601960248201527f4552433732313a20617070726f766520746f2063616c6c6572000000000000006044820152606401610633565b33600081815260056020908152604080832073ffffffffffffffffffffffffffffffffffffffff87168085529083529281902080547fffffffffffffffffffffffffffffffffffffffffffffffffffffffffffffff001686151590811790915590519081529192917f17307eab39ab6107e8899845ad3d59bd9653f200f220920489ca2b5937696c31910160405180910390a35050565b6110d833836115be565b611164576040517f08c379a000000000000000000000000000000000000000000000000000000000815260206004820152603160248201527f4552433732313a207472616e736665722063616c6c6572206973206e6f74206f60448201527f776e6572206e6f7220617070726f7665640000000000000000000000000000006064820152608401610633565b61117084848484611b75565b50505050565b60008181526002602052604090205460609073ffffffffffffffffffffffffffffffffffffffff1661122a576040517f08c379a000000000000000000000000000000000000000000000000000000000815260206004820152602f60248201527f4552433732314d657461646174613a2055524920717565727920666f72206e6f60448201527f6e6578697374656e7420746f6b656e00000000000000000000000000000000006064820152608401610633565b6000611234611c18565b90506000815111611254576040518060200160405280600081525061127f565b8061125e84611c27565b60405160200161126f929190612413565b6040516020818303038152906040525b9392505050565b60065473ffffffffffffffffffffffffffffffffffffffff163314611307576040517f08c379a000000000000000000000000000000000000000000000000000000000815260206004820181905260248201527f4f776e61626c653a2063616c6c6572206973206e6f7420746865206f776e65726044820152606401610633565b73ffffffffffffffffffffffffffffffffffffffff81166113aa576040517f08c379a000000000000000000000000000000000000000000000000000000000815260206004820152602660248201527f4f776e61626c653a206e6577206f776e657220697320746865207a65726f206160448201527f64647265737300000000000000000000000000000000000000000000000000006064820152608401610633565b60065460405173ffffffffffffffffffffffffffffffffffffffff8084169216907f8be0079c531659141344cd1fd0a4f28419497f9722a3daafe3b4186f6b6457e090600090a3600680547fffffffffffffffffffffffff00000000000000000000000000000000000000001673ffffffffffffffffffffffffffffffffffffffff92909216919091179055565b60065473ffffffffffffffffffffffffffffffffffffffff1633146114b9576040517f08c379a000000000000000000000000000000000000000000000000000000000815260206004820181905260248201527f4f776e61626c653a2063616c6c6572206973206e6f7420746865206f776e65726044820152606401610633565b600a80547fffffffffffffffffffffffffffffffffffffffffffffffffffffffffffffff00168215159081179091556040519081527f6c5077b147ba33efb2320134a1363ca18ccbacd3e2eb73438a3d23b2d7b180ba9060200160405180910390a150565b600081815260046020526040902080547fffffffffffffffffffffffff00000000000000000000000000000000000000001673ffffffffffffffffffffffffffffffffffffffff8416908117909155819061157882610b46565b73ffffffffffffffffffffffffffffffffffffffff167f8c5be1e5ebec7d5bd14f71427d1e84f3dd0314c0f7b2291e5b200ac8c7c3b92560405160405180910390a45050565b60008181526002602052604081205473ffffffffffffffffffffffffffffffffffffffff1661166f576040517f08c379a000000000000000000000000000000000000000000000000000000000815260206004820152602c60248201527f4552433732313a206f70657261746f7220717565727920666f72206e6f6e657860448201527f697374656e7420746f6b656e00000000000000000000000000000000000000006064820152608401610633565b600061167a83610b46565b90508073ffffffffffffffffffffffffffffffffffffffff168473ffffffffffffffffffffffffffffffffffffffff1614806116e957508373ffffffffffffffffffffffffffffffffffffffff166116d184610586565b73ffffffffffffffffffffffffffffffffffffffff16145b80611726575073ffffffffffffffffffffffffffffffffffffffff80821660009081526005602090815260408083209388168352929052205460ff165b949350505050565b8273ffffffffffffffffffffffffffffffffffffffff1661174e82610b46565b73ffffffffffffffffffffffffffffffffffffffff16146117f1576040517f08c379a000000000000000000000000000000000000000000000000000000000815260206004820152602960248201527f4552433732313a207472616e73666572206f6620746f6b656e2074686174206960448201527f73206e6f74206f776e00000000000000000000000000000000000000000000006064820152608401610633565b73ffffffffffffffffffffffffffffffffffffffff8216611893576040517f08c379a0000000000000000000000000000000000000000000000000000000008152602060048201526024808201527f4552433732313a207472616e7366657220746f20746865207a65726f2061646460448201527f72657373000000000000000000000000000000000000000000000000000000006064820152608401610633565b61189e60008261151e565b73ffffffffffffffffffffffffffffffffffffffff831660009081526003602052604081208054600192906118d49084906124f8565b909155505073ffffffffffffffffffffffffffffffffffffffff8216600090815260036020526040812080546001929061190f9084906124cc565b909155505060008181526002602052604080822080547fffffffffffffffffffffffff00000000000000000000000000000000000000001673ffffffffffffffffffffffffffffffffffffffff86811691821790925591518493918716917fddf252ad1be2c89b69c2b068fc378daa952ba7f163c4a11628f55a4df523b3ef91a4505050565b6119af828260405180602001604052806000815250611da7565b5050565b73ffffffffffffffffffffffffffffffffffffffff8216611a30576040517f08c379a000000000000000000000000000000000000000000000000000000000815260206004820181905260248201527f4552433732313a206d696e7420746f20746865207a65726f20616464726573736044820152606401610633565b60008181526002602052604090205473ffffffffffffffffffffffffffffffffffffffff1615611abc576040517f08c379a000000000000000000000000000000000000000000000000000000000815260206004820152601c60248201527f4552433732313a20746f6b656e20616c7265616479206d696e746564000000006044820152606401610633565b73ffffffffffffffffffffffffffffffffffffffff82166000908152600360205260408120805460019290611af29084906124cc565b909155505060008181526002602052604080822080547fffffffffffffffffffffffff00000000000000000000000000000000000000001673ffffffffffffffffffffffffffffffffffffffff861690811790915590518392907fddf252ad1be2c89b69c2b068fc378daa952ba7f163c4a11628f55a4df523b3ef908290a45050565b611b8084848461172e565b611b8c84848484611e4a565b611170576040517f08c379a000000000000000000000000000000000000000000000000000000000815260206004820152603260248201527f4552433732313a207472616e7366657220746f206e6f6e20455243373231526560448201527f63656976657220696d706c656d656e74657200000000000000000000000000006064820152608401610633565b6060600980546105039061253b565b606081611c6757505060408051808201909152600181527f3000000000000000000000000000000000000000000000000000000000000000602082015290565b8160005b8115611c915780611c7b8161258f565b9150611c8a9050600a836124e4565b9150611c6b565b60008167ffffffffffffffff811115611cd3577f4e487b7100000000000000000000000000000000000000000000000000000000600052604160045260246000fd5b6040519080825280601f01601f191660200182016040528015611cfd576020820181803683370190505b5090505b841561172657611d126001836124f8565b9150611d1f600a866125c8565b611d2a9060306124cc565b60f81b818381518110611d66577f4e487b7100000000000000000000000000000000000000000000000000000000600052603260045260246000fd5b60200101907effffffffffffffffffffffffffffffffffffffffffffffffffffffffffffff1916908160001a905350611da0600a866124e4565b9450611d01565b611db183836119b3565b611dbe6000848484611e4a565b6107ed576040517f08c379a000000000000000000000000000000000000000000000000000000000815260206004820152603260248201527f4552433732313a207472616e7366657220746f206e6f6e20455243373231526560448201527f63656976657220696d706c656d656e74657200000000000000000000000000006064820152608401610633565b600073ffffffffffffffffffffffffffffffffffffffff84163b1561203e576040517f150b7a0200000000000000000000000000000000000000000000000000000000815273ffffffffffffffffffffffffffffffffffffffff85169063150b7a0290611ec1903390899088908890600401612442565b602060405180830381600087803b158015611edb57600080fd5b505af1925050508015611f29575060408051601f3d9081017fffffffffffffffffffffffffffffffffffffffffffffffffffffffffffffffe0168201909252611f2691810190612337565b60015b611ff3573d808015611f57576040519150601f19603f3d011682016040523d82523d6000602084013e611f5c565b606091505b508051611feb576040517f08c379a000000000000000000000000000000000000000000000000000000000815260206004820152603260248201527f4552433732313a207472616e7366657220746f206e6f6e20455243373231526560448201527f63656976657220696d706c656d656e74657200000000000000000000000000006064820152608401610633565b805181602001fd5b7fffffffff00000000000000000000000000000000000000000000000000000000167f150b7a0200000000000000000000000000000000000000000000000000000000149050611726565b506001949350505050565b8280546120559061253b565b90600052602060002090601f01602090048101928261207757600085556120bd565b82601f1061209057805160ff19168380011785556120bd565b828001600101855582156120bd579182015b828111156120bd5782518255916020019190600101906120a2565b506120c99291506120cd565b5090565b5b808211156120c957600081556001016120ce565b600067ffffffffffffffff808411156120fd576120fd61263a565b604051601f85017fffffffffffffffffffffffffffffffffffffffffffffffffffffffffffffffe0908116603f011681019082821181831017156121435761214361263a565b8160405280935085815286868601111561215c57600080fd5b858560208301376000602087830101525050509392505050565b803573ffffffffffffffffffffffffffffffffffffffff8116811461219a57600080fd5b919050565b8035801515811461219a57600080fd5b6000602082840312156121c0578081fd5b61127f82612176565b600080604083850312156121db578081fd5b6121e483612176565b91506121f260208401612176565b90509250929050565b60008060006060848603121561220f578081fd5b61221884612176565b925061222660208501612176565b9150604084013590509250925092565b6000806000806080858703121561224b578081fd5b61225485612176565b935061226260208601612176565b925060408501359150606085013567ffffffffffffffff811115612284578182fd5b8501601f81018713612294578182fd5b6122a3878235602084016120e2565b91505092959194509250565b600080604083850312156122c1578182fd5b6122ca83612176565b91506121f26020840161219f565b600080604083850312156122ea578182fd5b6122f383612176565b946020939093013593505050565b600060208284031215612312578081fd5b61127f8261219f565b60006020828403121561232c578081fd5b813561127f81612669565b600060208284031215612348578081fd5b815161127f81612669565b600060208284031215612364578081fd5b813567ffffffffffffffff81111561237a578182fd5b8201601f8101841361238a578182fd5b611726848235602084016120e2565b6000602082840312156123aa578081fd5b5035919050565b6000602082840312156123c2578081fd5b5051919050565b600081518084526123e181602086016020860161250f565b601f017fffffffffffffffffffffffffffffffffffffffffffffffffffffffffffffffe0169290920160200192915050565b6000835161242581846020880161250f565b83519083019061243981836020880161250f565b01949350505050565b600073ffffffffffffffffffffffffffffffffffffffff80871683528086166020840152508360408301526080606083015261248160808301846123c9565b9695505050505050565b60208152600061127f60208301846123c9565b6040815260006124b160408301856123c9565b82810360208401526124c381856123c9565b95945050505050565b600082198211156124df576124df6125dc565b500190565b6000826124f3576124f361260b565b500490565b60008282101561250a5761250a6125dc565b500390565b60005b8381101561252a578181015183820152602001612512565b838111156111705750506000910152565b600181811c9082168061254f57607f821691505b60208210811415612589577f4e487b7100000000000000000000000000000000000000000000000000000000600052602260045260246000fd5b50919050565b60007fffffffffffffffffffffffffffffffffffffffffffffffffffffffffffffffff8214156125c1576125c16125dc565b5060010190565b6000826125d7576125d761260b565b500690565b7f4e487b7100000000000000000000000000000000000000000000000000000000600052601160045260246000fd5b7f4e487b7100000000000000000000000000000000000000000000000000000000600052601260045260246000fd5b7f4e487b7100000000000000000000000000000000000000000000000000000000600052604160045260246000fd5b7fffffffff000000000000000000000000000000000000000000000000000000008116811461269757600080fd5b5056fea2646970667358221220086a1a7c42ab42e99de79e93adceb86dfb6962e4bbd581e68f5e8df2d6f774ae64736f6c63430008040033",
  "linkReferences": {},
  "deployedLinkReferences": {}
}