{
  "_format": "hh-sol-artifact-1",
  "contractName": "RPCRouter",
  "sourceName": "contracts/RPCRouter.sol",
  "abi": [
    {
      "inputs": [
        {
          "internalType": "contract IResPublicaCash",
          "name": "_RPC",
          "type": "address"
        }
      ],
      "stateMutability": "nonpayable",
      "type": "constructor"
    },
    {
      "anonymous": false,
      "inputs": [
        {
          "indexed": false,
          "internalType": "uint256",
          "name": "amount",
          "type": "uint256"
        }
      ],
      "name": "BurnFee",
      "type": "event"
    },
    {
      "anonymous": false,
      "inputs": [
        {
          "indexed": false,
          "internalType": "address",
          "name": "market",
          "type": "address"
        },
        {
          "indexed": false,
          "internalType": "address",
          "name": "payer",
          "type": "address"
        },
        {
          "indexed": false,
          "internalType": "uint256",
          "name": "amount",
          "type": "uint256"
        }
      ],
      "name": "FeeCollected",
      "type": "event"
    },
    {
      "anonymous": false,
      "inputs": [
        {
          "indexed": false,
          "internalType": "address",
          "name": "nft",
          "type": "address"
        },
        {
          "indexed": false,
          "internalType": "uint256",
          "name": "amount",
          "type": "uint256"
        },
        {
          "indexed": false,
          "internalType": "uint256",
          "name": "burnRate",
          "type": "uint256"
        }
      ],
      "name": "FixedAmountFeeUpdated",
      "type": "event"
    },
    {
      "anonymous": false,
      "inputs": [
        {
          "indexed": false,
          "internalType": "address",
          "name": "market",
          "type": "address"
        },
        {
          "indexed": false,
          "internalType": "uint256",
          "name": "feeRate",
          "type": "uint256"
        },
        {
          "indexed": false,
          "internalType": "uint256",
          "name": "burnRate",
          "type": "uint256"
        }
      ],
      "name": "FixedRateFeeUpdated",
      "type": "event"
    },
    {
      "anonymous": false,
      "inputs": [
        {
          "indexed": true,
          "internalType": "address",
          "name": "previousOwner",
          "type": "address"
        },
        {
          "indexed": true,
          "internalType": "address",
          "name": "newOwner",
          "type": "address"
        }
      ],
      "name": "OwnershipTransferred",
      "type": "event"
    },
    {
      "anonymous": false,
      "inputs": [
        {
          "indexed": false,
          "internalType": "address",
          "name": "feeTo",
          "type": "address"
        },
        {
          "indexed": false,
          "internalType": "uint256",
          "name": "amount",
          "type": "uint256"
        }
      ],
      "name": "WithdrawFee",
      "type": "event"
    },
    {
      "inputs": [],
      "name": "RPC",
      "outputs": [
        {
          "internalType": "contract IResPublicaCash",
          "name": "",
          "type": "address"
        }
      ],
      "stateMutability": "view",
      "type": "function"
    },
    {
      "inputs": [
        {
          "internalType": "uint256",
          "name": "amount",
          "type": "uint256"
        }
      ],
      "name": "burnFee",
      "outputs": [],
      "stateMutability": "nonpayable",
      "type": "function"
    },
    {
      "inputs": [
        {
          "internalType": "address",
          "name": "",
          "type": "address"
        }
      ],
      "name": "fixedAmountFee",
      "outputs": [
        {
          "internalType": "uint256",
          "name": "amountOrRate",
          "type": "uint256"
        },
        {
          "internalType": "uint256",
          "name": "burnRate",
          "type": "uint256"
        }
      ],
      "stateMutability": "view",
      "type": "function"
    },
    {
      "inputs": [
        {
          "internalType": "address",
          "name": "",
          "type": "address"
        }
      ],
      "name": "fixedRateFee",
      "outputs": [
        {
          "internalType": "uint256",
          "name": "amountOrRate",
          "type": "uint256"
        },
        {
          "internalType": "uint256",
          "name": "burnRate",
          "type": "uint256"
        }
      ],
      "stateMutability": "view",
      "type": "function"
    },
    {
      "inputs": [],
      "name": "owner",
      "outputs": [
        {
          "internalType": "address",
          "name": "",
          "type": "address"
        }
      ],
      "stateMutability": "view",
      "type": "function"
    },
    {
      "inputs": [],
      "name": "renounceOwnership",
      "outputs": [],
      "stateMutability": "nonpayable",
      "type": "function"
    },
    {
      "inputs": [
        {
          "internalType": "address",
          "name": "app",
          "type": "address"
        },
        {
          "internalType": "uint256",
          "name": "amount",
          "type": "uint256"
        },
        {
          "internalType": "uint256",
          "name": "burnRate",
          "type": "uint256"
        }
      ],
      "name": "setFixedAmountFee",
      "outputs": [],
      "stateMutability": "nonpayable",
      "type": "function"
    },
    {
      "inputs": [
        {
          "internalType": "address",
          "name": "nft",
          "type": "address"
        },
        {
          "internalType": "uint256",
          "name": "feeRate",
          "type": "uint256"
        },
        {
          "internalType": "uint256",
          "name": "burnRate",
          "type": "uint256"
        }
      ],
      "name": "setFixedRateFee",
      "outputs": [],
      "stateMutability": "nonpayable",
      "type": "function"
    },
    {
      "inputs": [
        {
          "internalType": "address",
          "name": "payer",
          "type": "address"
        }
      ],
      "name": "spendRPCWithFixedAmountFee",
      "outputs": [
        {
          "internalType": "uint256",
          "name": "feeCollected",
          "type": "uint256"
        }
      ],
      "stateMutability": "nonpayable",
      "type": "function"
    },
    {
      "inputs": [
        {
          "internalType": "address",
          "name": "payer",
          "type": "address"
        },
        {
          "internalType": "address",
          "name": "recipient",
          "type": "address"
        },
        {
          "internalType": "uint256",
          "name": "volume",
          "type": "uint256"
        }
      ],
      "name": "spendRPCWithFixedRateFee",
      "outputs": [
        {
          "internalType": "uint256",
          "name": "feeCollected",
          "type": "uint256"
        },
        {
          "internalType": "uint256",
          "name": "recipientReceived",
          "type": "uint256"
        }
      ],
      "stateMutability": "nonpayable",
      "type": "function"
    },
    {
      "inputs": [
        {
          "internalType": "address",
          "name": "newOwner",
          "type": "address"
        }
      ],
      "name": "transferOwnership",
      "outputs": [],
      "stateMutability": "nonpayable",
      "type": "function"
    },
    {
      "inputs": [
        {
          "internalType": "address",
          "name": "feeTo",
          "type": "address"
        }
      ],
      "name": "withdrawFee",
      "outputs": [],
      "stateMutability": "nonpayable",
      "type": "function"
    }
  ],
  "bytecode": "0x608060405234801561001057600080fd5b5060405161170c38038061170c83398101604081905261002f91610095565b600080546001600160a01b031916339081178255604051909182917f8be0079c531659141344cd1fd0a4f28419497f9722a3daafe3b4186f6b6457e0908290a350600180546001600160a01b0319166001600160a01b03929092169190911790556100c3565b6000602082840312156100a6578081fd5b81516001600160a01b03811681146100bc578182fd5b9392505050565b61163a806100d26000396000f3fe608060405234801561001057600080fd5b50600436106100d45760003560e01c80634e11de93116100815780638adef4a51161005b5780638adef4a5146101fd5780638da5cb5b14610210578063f2fde38b1461022e57600080fd5b80634e11de93146101bb5780636d11eb9c146101e2578063715018a6146101f557600080fd5b8063314d5074116100b2578063314d50741461014257806349ae028a146101635780634a3705731461017657600080fd5b806304ff9085146100d95780630652d792146100ee5780631ac3ddeb1461012f575b600080fd5b6100ec6100e7366004611429565b610241565b005b6101156100fc3660046113d4565b6003602052600090815260409020805460019091015482565b604080519283526020830191909152015b60405180910390f35b6100ec61013d3660046113d4565b6104c1565b6101556101503660046113d4565b61065e565b604051908152602001610126565b6100ec61017136600461147b565b6106e7565b6001546101969073ffffffffffffffffffffffffffffffffffffffff1681565b60405173ffffffffffffffffffffffffffffffffffffffff9091168152602001610126565b6101156101c93660046113d4565b6002602052600090815260409020805460019091015482565b6100ec6101f0366004611429565b610828565b6100ec610a9a565b61011561020b3660046113ee565b610b8a565b60005473ffffffffffffffffffffffffffffffffffffffff16610196565b6100ec61023c3660046113d4565b610c6e565b60005473ffffffffffffffffffffffffffffffffffffffff1633146102c7576040517f08c379a000000000000000000000000000000000000000000000000000000000815260206004820181905260248201527f4f776e61626c653a2063616c6c6572206973206e6f7420746865206f776e657260448201526064015b60405180910390fd5b73ffffffffffffffffffffffffffffffffffffffff8316610344576040517f08c379a000000000000000000000000000000000000000000000000000000000815260206004820152601c60248201527f696c6c6567616c206170706c69636174696f6e20636f6e74726163740000000060448201526064016102be565b600160009054906101000a900473ffffffffffffffffffffffffffffffffffffffff1673ffffffffffffffffffffffffffffffffffffffff1663b34ec99c6040518163ffffffff1660e01b815260040160206040518083038186803b1580156103ac57600080fd5b505afa1580156103c0573d6000803e3d6000fd5b505050506040513d601f19601f820116820180604052508101906103e49190611493565b81101561044d576040517f08c379a000000000000000000000000000000000000000000000000000000000815260206004820152601160248201527f696c6c6567616c206275726e207261746500000000000000000000000000000060448201526064016102be565b73ffffffffffffffffffffffffffffffffffffffff83166000818152600360209081526040918290208581556001018490558151928352820184905281018290527ff4e23c62b636463b892095670aa130ee6da91878ad9d279934b755ad82cc042d906060015b60405180910390a1505050565b60005473ffffffffffffffffffffffffffffffffffffffff163314610542576040517f08c379a000000000000000000000000000000000000000000000000000000000815260206004820181905260248201527f4f776e61626c653a2063616c6c6572206973206e6f7420746865206f776e657260448201526064016102be565b6001546040517f70a0823100000000000000000000000000000000000000000000000000000000815230600482015260009173ffffffffffffffffffffffffffffffffffffffff16906370a082319060240160206040518083038186803b1580156105ac57600080fd5b505afa1580156105c0573d6000803e3d6000fd5b505050506040513d601f19601f820116820180604052508101906105e49190611493565b60015490915061060b9073ffffffffffffffffffffffffffffffffffffffff168383610e1f565b6040805173ffffffffffffffffffffffffffffffffffffffff84168152602081018390527f66bf9186b00db666fc37aaffbb95a050c66e599e000c785c1dff0467d868f1b1910160405180910390a15050565b3360009081526002602052604081208054156106e1576106878382600001548360010154610eb1565b6040805133815273ffffffffffffffffffffffffffffffffffffffff861660208201529081018290529092507ff228de527fc1b9843baac03b9a04565473a263375950e63435d4138464386f469060600160405180910390a15b50919050565b60005473ffffffffffffffffffffffffffffffffffffffff163314610768576040517f08c379a000000000000000000000000000000000000000000000000000000000815260206004820181905260248201527f4f776e61626c653a2063616c6c6572206973206e6f7420746865206f776e657260448201526064016102be565b6001546040517f42966c680000000000000000000000000000000000000000000000000000000081526004810183905273ffffffffffffffffffffffffffffffffffffffff909116906342966c6890602401600060405180830381600087803b1580156107d457600080fd5b505af11580156107e8573d6000803e3d6000fd5b505050507f7fc6eafc36623a1bf98ab465323c29e86651efa5e165bd87d25a3bda5c35b83f8160405161081d91815260200190565b60405180910390a150565b60005473ffffffffffffffffffffffffffffffffffffffff1633146108a9576040517f08c379a000000000000000000000000000000000000000000000000000000000815260206004820181905260248201527f4f776e61626c653a2063616c6c6572206973206e6f7420746865206f776e657260448201526064016102be565b73ffffffffffffffffffffffffffffffffffffffff8316610926576040517f08c379a000000000000000000000000000000000000000000000000000000000815260206004820152601c60248201527f696c6c6567616c206170706c69636174696f6e20636f6e74726163740000000060448201526064016102be565b600160009054906101000a900473ffffffffffffffffffffffffffffffffffffffff1673ffffffffffffffffffffffffffffffffffffffff1663b34ec99c6040518163ffffffff1660e01b815260040160206040518083038186803b15801561098e57600080fd5b505afa1580156109a2573d6000803e3d6000fd5b505050506040513d601f19601f820116820180604052508101906109c69190611493565b811015610a2f576040517f08c379a000000000000000000000000000000000000000000000000000000000815260206004820152601160248201527f696c6c6567616c206275726e207261746500000000000000000000000000000060448201526064016102be565b73ffffffffffffffffffffffffffffffffffffffff83166000818152600260209081526040918290208581556001018490558151928352820184905281018290527f615e57be4ca966f0842c61d38f521463cd79f6f6239f482ccd90a673a04cc236906060016104b4565b60005473ffffffffffffffffffffffffffffffffffffffff163314610b1b576040517f08c379a000000000000000000000000000000000000000000000000000000000815260206004820181905260248201527f4f776e61626c653a2063616c6c6572206973206e6f7420746865206f776e657260448201526064016102be565b6000805460405173ffffffffffffffffffffffffffffffffffffffff909116907f8be0079c531659141344cd1fd0a4f28419497f9722a3daafe3b4186f6b6457e0908390a3600080547fffffffffffffffffffffffff0000000000000000000000000000000000000000169055565b6000808215610c66573360009081526003602052604081206001810154909190610bb79088908790610eb1565b8254909150670de0b6b3a7640000610bcf8284611551565b610bd99190611518565b9450610be5858361158e565b600154909450610c0c9073ffffffffffffffffffffffffffffffffffffffff168886610e1f565b6040805133815273ffffffffffffffffffffffffffffffffffffffff8a1660208201529081018690527ff228de527fc1b9843baac03b9a04565473a263375950e63435d4138464386f469060600160405180910390a15050505b935093915050565b60005473ffffffffffffffffffffffffffffffffffffffff163314610cef576040517f08c379a000000000000000000000000000000000000000000000000000000000815260206004820181905260248201527f4f776e61626c653a2063616c6c6572206973206e6f7420746865206f776e657260448201526064016102be565b73ffffffffffffffffffffffffffffffffffffffff8116610d92576040517f08c379a000000000000000000000000000000000000000000000000000000000815260206004820152602660248201527f4f776e61626c653a206e6577206f776e657220697320746865207a65726f206160448201527f646472657373000000000000000000000000000000000000000000000000000060648201526084016102be565b6000805460405173ffffffffffffffffffffffffffffffffffffffff808516939216917f8be0079c531659141344cd1fd0a4f28419497f9722a3daafe3b4186f6b6457e091a3600080547fffffffffffffffffffffffff00000000000000000000000000000000000000001673ffffffffffffffffffffffffffffffffffffffff92909216919091179055565b6040805173ffffffffffffffffffffffffffffffffffffffff8416602482015260448082018490528251808303909101815260649091019091526020810180517bffffffffffffffffffffffffffffffffffffffffffffffffffffffff167fa9059cbb00000000000000000000000000000000000000000000000000000000179052610eac9084906110b5565b505050565b6001546040517f70a0823100000000000000000000000000000000000000000000000000000000815230600482018190526000929091839173ffffffffffffffffffffffffffffffffffffffff16906370a082319060240160206040518083038186803b158015610f2157600080fd5b505afa158015610f35573d6000803e3d6000fd5b505050506040513d601f19601f82011682018060405250810190610f599190611493565b6001546040517f8b8e067100000000000000000000000000000000000000000000000000000000815273ffffffffffffffffffffffffffffffffffffffff898116600483015285811660248301526044820189905260648201889052929350911690638b8e067190608401600060405180830381600087803b158015610fde57600080fd5b505af1158015610ff2573d6000803e3d6000fd5b50506001546040517f70a0823100000000000000000000000000000000000000000000000000000000815273ffffffffffffffffffffffffffffffffffffffff86811660048301526000945090911691506370a082319060240160206040518083038186803b15801561106457600080fd5b505afa158015611078573d6000803e3d6000fd5b505050506040513d601f19601f8201168201806040525081019061109c9190611493565b90506110a8828261158e565b93505050505b9392505050565b6000611117826040518060400160405280602081526020017f5361666545524332303a206c6f772d6c6576656c2063616c6c206661696c65648152508573ffffffffffffffffffffffffffffffffffffffff166111c19092919063ffffffff16565b805190915015610eac5780806020019051810190611135919061145b565b610eac576040517f08c379a000000000000000000000000000000000000000000000000000000000815260206004820152602a60248201527f5361666545524332303a204552433230206f7065726174696f6e20646964206e60448201527f6f7420737563636565640000000000000000000000000000000000000000000060648201526084016102be565b60606111d084846000856111d8565b949350505050565b60608247101561126a576040517f08c379a000000000000000000000000000000000000000000000000000000000815260206004820152602660248201527f416464726573733a20696e73756666696369656e742062616c616e636520666f60448201527f722063616c6c000000000000000000000000000000000000000000000000000060648201526084016102be565b843b6112d2576040517f08c379a000000000000000000000000000000000000000000000000000000000815260206004820152601d60248201527f416464726573733a2063616c6c20746f206e6f6e2d636f6e747261637400000060448201526064016102be565b6000808673ffffffffffffffffffffffffffffffffffffffff1685876040516112fb91906114ab565b60006040518083038185875af1925050503d8060008114611338576040519150601f19603f3d011682016040523d82523d6000602084013e61133d565b606091505b509150915061134d828286611358565b979650505050505050565b606083156113675750816110ae565b8251156113775782518084602001fd5b816040517f08c379a00000000000000000000000000000000000000000000000000000000081526004016102be91906114c7565b803573ffffffffffffffffffffffffffffffffffffffff811681146113cf57600080fd5b919050565b6000602082840312156113e5578081fd5b6110ae826113ab565b600080600060608486031215611402578182fd5b61140b846113ab565b9250611419602085016113ab565b9150604084013590509250925092565b60008060006060848603121561143d578283fd5b611446846113ab565b95602085013595506040909401359392505050565b60006020828403121561146c578081fd5b815180151581146110ae578182fd5b60006020828403121561148c578081fd5b5035919050565b6000602082840312156114a4578081fd5b5051919050565b600082516114bd8184602087016115a5565b9190910192915050565b60208152600082518060208401526114e68160408501602087016115a5565b601f017fffffffffffffffffffffffffffffffffffffffffffffffffffffffffffffffe0169190910160400192915050565b60008261154c577f4e487b710000000000000000000000000000000000000000000000000000000081526012600452602481fd5b500490565b6000817fffffffffffffffffffffffffffffffffffffffffffffffffffffffffffffffff0483118215151615611589576115896115d5565b500290565b6000828210156115a0576115a06115d5565b500390565b60005b838110156115c05781810151838201526020016115a8565b838111156115cf576000848401525b50505050565b7f4e487b7100000000000000000000000000000000000000000000000000000000600052601160045260246000fdfea2646970667358221220711b29135619fed82e99a65b3267730daa14a4abe0ee6cf8e81850f966689d3c64736f6c63430008040033",
  "linkReferences": {},
  "deployedLinkReferences": {}
}